:100000000C9418030C9437030C9437030C943703A7
:100010000C9437030C9437030C9437030C94370378
:100020000C9437030C9437030C9441240C94192539
:100030000C945E1B0C9437030C9437030C94370319
:100040000C9437030C9437030C9437030C94370348
:100050000C9437030C94A91B0C9437030C943703AE
:100060000C9437030C94E80C0C9437030C9437036E
:100070000C9437030C9437030C9437030C94370318
:100080000C9437030C9437030C9437030C94370308
:100090000C9437030C943703E1002B001C003C0048
:1000A0001700400030002F0000000000E3000000B7
:1000B00000002A00000000000000390000000000DD
:1000C00000001100000005000000380000000000E2
:1000D000E6004F00500051002C004E0000000000D0
:1000E00000000000E5001D001000060019003700A8
:1000F00000003600E40000000000000000002800BE
:100100004B00000000001B000000000004000D0078
:10011000070009000F0033000E000000000000007F
:100120002800000031002800000000001600000038
:1001300000001E00240020002100260027002500CA
:100140000000000045004C00440043004A0000004D
:1001500000001F0000000000140018000800150037
:10016000120013000C00000000000000000000005E
:1001700000000000000000001A0000000000350030
:1001800023003B00220041002D002E00E000000073
:1001900000000000490042004D00000000003A004D
:1001A0000000000029000B003D000A0000003400A0
:1001B0003F000000E2000000520000003E0000008E
:1001C000000000000000000000000000000000002F
:1001D000000000000000000000000000000000001F
:1001E000000000000000F400F6000000F5004445A7
:1001F0004255473A2064697361626C65642E0A0057
:1002000044454255473A20656E61626C65642E0A2A
:10021000000A00253033326C62003A20002530326B
:1002200058000A722F632030313233343536373874
:10023000394142434445463031323334353637381C
:10024000394142434445460A0020636F6D6D616E3B
:10025000643A2025582C20726573756C743A2025F9
:10026000582C206572726F723A202558200A00704F
:100270007332206D6F75736520656E61626C6520E9
:1002800064617461207265706F7274696E6700706A
:1002900073325F6D6F7573653A206661696C2074A7
:1002A0006F20676574206D6F757365207061636B77
:1002B00065740A0020726573756C743A2025582C99
:1002C000206572726F723A202558200A00707332CE
:1002D0005F6D6F7573655F696E69743A20726561F1
:1002E000642044657649440020726573756C743AE5
:1002F0002025582C206572726F723A202558200AEA
:10030000007073325F6D6F7573655F696E69743A03
:100310002072656164204241540020636F6D6D61FD
:100320006E643A2025582C20726573756C743A20DF
:1003300025582C206572726F723A202558200A00C9
:100340007073325F6D6F7573655F696E69743A20A3
:1003500073656E64696E67207265736574007062A0
:1003600075663A2066756C6C0A00505332205553FE
:10037000415254206572726F723A202530325820F3
:10038000646174613A20253032580A000A00253031
:10039000325820006B6579626F6172645F726570BC
:1003A0006F72743A20000A0025303258006B65796C
:1003B000626F6172645F7365745F6C65643A20009C
:1003C00064656C5F6B65795F6269743A2063616E26
:1003D00027742064656C3A20253032580A00616425
:1003E000645F6B65795F6269743A2063616E27743C
:1003F000206164643A20253032580A00290A002519
:1004000075002F002575005D28002564002000255B
:100410006400200025640020002564007C00253055
:100420003258006D6F7573656B6579205B62746E11
:100430007C782079207620685D287265702F616352
:100440006C293A205B005B735D004B6579626F61DC
:1004500072642073746172742E0A005B575D005BD6
:10046000535D005B525D005B445D005B435D0004D7
:100470000330000000140343006C00750065006247
:10048000006F006100720064000000140343006C00
:10049000007500650062006F00610072006400007A
:1004A000000403090409025B00030100A0FA090427
:1004B0000000010301010009211101000122400097
:1004C0000705810308000A09040100010300000078
:1004D00009211101000122BC000705820320000A46
:1004E0000904020002030000000921110100012299
:1004F00022000705830320000107050303200001F4
:100500001201100100000008EDC1012303000102E7
:1005100003010631FF0974A1010975150026FF00CA
:100520009520750881020976150026FF0095207533
:10053000089102C005010902A10185020901A1007B
:100540000509190129051500250195057501810287
:100550009501750381010501093009311581257F58
:1005600095027508810609381581257F9501750862
:100570008106050C0A38021581257F9501750881D1
:1005800006C0C005010980A101850319012AB70031
:10059000150126B700950175108100C0050C0901F1
:1005A000A101850419012AA002150126A0029501C6
:1005B00075108100C005010906A10185050507190F
:1005C000E029E71500250195087501810205071945
:1005D0000029EF1500250195F07501810205081924
:1005E000012905950575019102950175039101C0D9
:1005F00005010906A101050719E029E715002501F4
:10060000950875018102950175088101050719009A
:1006100029FF150026FF00950675088100050819B9
:10062000012905950575019102950175039101C098
:1006300011241FBECFEFD0E2DEBFCDBF11E0A0E09E
:10064000B1E0EEEEFEE400E00BBF02C007900D92B9
:10065000A23AB107D9F723E0A2EAB1E001C01D92A6
:10066000A536B207E1F70E9475210C944D270C9432
:100670000000FF93EF93E091A201F091A301309766
:1006800009F00995EF91FF910895FC018591803063
:1006900011F0EFDFFBCF0895FF27E0E230E247FFE4
:1006A0000CC0419597FF09C0EDE26095709580956B
:1006B0009095611D711D811D911D27FF02C021951F
:1006C00030E350E2AA27660F771F881F991FAA1FE1
:1006D000A41710F0A41B63955A95A9F7AA3008F047
:1006E000A95FA05DAF93F395611571058105910533
:1006F00041F7ED3211F4EF93F395F21718F43F93AD
:10070000F395FBCF8F91B5DFFA95E1F70895E99165
:10071000F9918591803021F0853219F0AADFF9CF67
:10072000089520E0E89455915532C1F3503311F407
:10073000689455915A3348F4505390F3220F022E87
:10074000220F220F200D250FF4CF0EF42195899151
:100750009991533619F3533729F1533559F1BC01A7
:1007600088279927E8945C3621F4899199916894B7
:100770005591543639F446EF7EF077FF0DC08FEF78
:100780009FEF0AC055374AE039F0583540E121F073
:10079000523642E009F00895FF93EF937DDFEF9129
:1007A000FF91B7CFFF93EF93FC0181918030B9F3B4
:1007B00060DFFBCFFF93EF9368DFF1CFDF93CF9341
:1007C000CDB7DEB72596A3DFCF91DF91089581E005
:1007D000089581E008950C94E90308950C94ED03C5
:1007E0001F93CF93DF9300D000D00F92CDB7DEB729
:1007F00049835A836B833091000289819A81311138
:100800001DC06623B9F02223A9F00E94F117182F0A
:10081000682F89819A810E949D1769817A81812F31
:100820000F900F900F900F900F90DF91CF911F912D
:100830000C94B6040E94C917182FEFCF0E94F1172D
:1008400069817A81EDCFFC01262F4081518162813F
:10085000738184810C94F003CF93DF93EC0160E00B
:100860000E942304BE01DF91CF910C94EE030E94FD
:100870008519811102C00E94221A0C94C2060C94A0
:10088000C50608950E9404130E9441042FEF84E3DB
:100890009CE0215080409040E1F700C000000C94A3
:1008A000CD1B0F931F93CF93DF93EC0161E00E9468
:1008B00023048C01BE010E94EB03882311F1BE01C9
:1008C000C8010E94B9088823E1F0BE01C8010E9456
:1008D0000B098823B1F0BE01C8010E942E0A8823AB
:1008E00081F08A81882341F101308CE5180779F085
:1008F0000E3D8CE51807E9F001151C45E9F40E944E
:10090000420480E0DF91CF911F910F910895909163
:10091000D402892F8E7F90FF81608093D40280FF64
:1009200005C080E092E00E944503EBCF8EEE91E09F
:10093000FACF0E94221AE5CFCE01DF91CF911F910D
:100940000F910C94E70308950C94A30481E008959B
:100950000C94A604CF93C82F0E94A4048C2FCF918F
:100960000C94A80490E080E008950895972F70E01B
:1009700023E1929F600D711D1124FB019BEA899F69
:10098000E00DF11D1124EE0FFF1FE856FF4F85917A
:1009900094910895FC01EE0FFF1FEF5EFD4F8591CE
:1009A00094910895CF93DF930E94B6040E94E705C7
:1009B000EC01811520E5920708F042C0811530E472
:1009C000930708F0BDC0883E910528F5803E91054B
:1009D00008F09DC0883A910588F4853A910508F0A1
:1009E0008FC08130910509F492C0009709F48FC03F
:1009F000049708F08CC0D0E0C0E089C08F3B91051F
:100A000008F489C0805C9109C03CD105A0F30E9424
:100A1000CA04EC017CC08115904250F4C11581E0FC
:100A2000D80708F074C0C03FD10528F3D0656FC067
:100A3000C11590E3D90708F079C0CE019F70E7CFC8
:100A4000811525E5920758F5811534E5930708F0DF
:100A5000A6C0811542E5940750F4C11581E5D80779
:100A600008F471C0DC2FCC27C16FD06A50C0982F1A
:100A7000969596959E0123703327C115D34508F0AE
:100A80007FC0C1E0D0E002C0CC0FDD1F2A95E2F7A5
:100A900020E2929FC0011124C82BD92B6FC0C11531
:100AA00089E5D807A8F4C11598E5D90708F07CC0F6
:100AB000C11526E5D20708F09ECF8C2F0E947E0636
:100AC000C82FD0E0DC2FCC27CC27DF71D0621FC02D
:100AD000C1153AE5D30708F46CC0CE0190568115D4
:100AE000904208F088CF8D2F8F710E947E0690E093
:100AF000982F882788279F719C012C2BE901E6CF2E
:100B0000C55AD0E0CD5BDE4FC881D0E0D064CE01C5
:100B1000DF91CF910895C85AD0E0CC0FDD1FCB5E96
:100B2000DE4F0990D881C02DD464F1CFCE01992732
:100B3000D3FF03C0EC01D86CEACFEC01D06CE7CF57
:100B4000DF70D06AE4CFCE01E4E096958795EA9510
:100B5000E1F783702C2F26952695237090E2299F2C
:100B600090011124382B8C2F8370C1E0D0E002C09B
:100B7000CC0FDD1F8A95E2F7C22BD32BDC68C7CFE1
:100B8000C1E0D0E002C0CC0FDD1F2A95E2F730E2D1
:100B9000939FC0011124C82BD92BDA68B8CFD82F66
:100BA000CC27C46FD06AB3CFDC2FCC27C06FD06AFC
:100BB000AECF8C2F8F700E947E0634E0D695C795FD
:100BC0003A95E1F7CF709C2FEC01D069A0CF823825
:100BD0009105B1F1B0F48133910509F475C048F481
:100BE0008932910509F469C08A32910509F473C00C
:100BF00008958533910509F459C08933910501F1B0
:100C00000895833E9105A9F138F4803E9105F9F0ED
:100C1000823E910549F10895863E9105A9F1873EEE
:100C20009105C9F1843E910519F52091570321FFE3
:100C30001FC08091560384FD14C087EE90E0089594
:100C4000209156032370A1F080EE90E0089520914A
:100C5000560320FD47C03091570330FF09C024FFE1
:100C600044C090E080E004C02091560322FDF7CFFD
:100C700008952091560322FD3BC03091570330FD6B
:100C8000E3CF24FFF5CFEDCF2091560323FFF0CF24
:100C900024FDE7CFD2CF2091560323FD2CC0309105
:100CA000570331FFEECF84EE90E008952091560374
:100CB00025FFDECF89E290E008952091560325FFBD
:100CC000D7CF85E390E008952091560326FFD0CF3B
:100CD0008AE290E008952091560326FFC9CF81E370
:100CE00090E0089589E390E0089583EE90E0089500
:100CF00082EE90E0089586EE90E00895909156037C
:100D000092FF06C0282F28712830F9F4877F84606D
:100D100093FF06C0282F28712831F1F4877E846163
:100D20002091570320FF06C0382F38713830D9F48E
:100D3000877F816021FF06C0282F28712831D1F4D8
:100D4000877E816194FD877E0895282F2471243049
:100D5000F9F68B7F8860DCCF282F2471243101F7CE
:100D60008B7E8861DDCF382F3171313019F78E7F5E
:100D70008860E0CF282F2171213121F78E7E886194
:100D8000E1CF08950C94C10608950C94C40694E034
:100D9000899FF0011124E45DFC4F608171818281A3
:100DA00093810895CF92DF92EF92FF920F931F935A
:100DB000CF93DF9382E292E00E9445038CE2E82E1B
:100DC00083E0F82ED0E0C0E09DE1C92E92E0D92E5C
:100DD00003E112E0DF93CF93DF92CF920E94DE0314
:100DE0008AE192E00E944503F7016191719181913E
:100DF00091917F010E945F199F938F937F936F93CF
:100E00001F930F930E94DE0381E192E00E9445034D
:100E100021968DB79EB70A960FB6F8949EBF0FBE67
:100E20008DBFC930D105B1F6DF91CF911F910F91E0
:100E3000FF90EF90DF90CF90089580EA8A95F1F7C8
:100E40000895A9E5B1E061E070E08D91E82FE295A9
:100E5000EF70F0E041A18F709B0101C0220F8A95D5
:100E6000EAF7922F9095942391A382A1822B82A3DB
:100E700081E0A236B80749F7A6E4B1E061E070E08E
:100E80008D91E82FE295EF70F0E041A18F709B010A
:100E900001C0220F8A95EAF7922F9095942391A38F
:100EA00082A1822B82A381E0A935B80749F7E8E047
:100EB000F3E0ACE2B3E08CE293E011921192119274
:100EC00011921D921D921D921D928E179F07A9F7D8
:100ED00089E00E9410080C9437042F923F924F92A1
:100EE0005F926F927F928F929F92AF92BF92CF92BA
:100EF000DF92EF92FF920F931F93CF93DF9339E529
:100F0000C32E31E0D32E48E0E42E43E0F42E10E06F
:100F100088248394912CF60181916F01C82FC2958A
:100F2000CF70D0E099A18F70540101C0AA0C8A95AE
:100F3000EAF7892F8A2989A38AA10A2D009580239F
:100F40008AA30E941D07A6E4B1E090E080E040E0A3
:100F500050E0BA012D90E22DE295EF70F0E020A173
:100F600030E0E22DEF7002C035952795EA95E2F763
:100F7000412C512C320120FD0CC0412C512C32014E
:100F80004394082E04C0440C551C661C771C0A941C
:100F9000D2F744295529662977290196833191058D
:100FA000C9F689A1082309A38AA1A82AAAA2F70140
:100FB00080819181A281B381481759076A077B0715
:100FC00069F1408351836283738381E0182BF4E0DD
:100FD000EF0EF11C82E6C81681E0D80609F09BCF1F
:100FE000212F49E06CE273E088E093E00E94110851
:100FF0000E943F04812FDF91CF911F910F91FF90AD
:10100000EF90DF90CF90BF90AF909F908F907F90A8
:101010006F905F904F903F902F90089580E0D6CFD3
:101020000895CF92DF92EF92FF92FB0130E020E033
:1010300050E0241735072CF0FF90EF90DF90CF9011
:101040000895DC01CD90DD90ED90FD90CD01C19231
:10105000D192E192F1922F5F3F4FEBCFAF92BF92CF
:10106000CF92DF92EF92FF920F931F93CF93DF9374
:101070007C015B01C42FD22FFC0182818823F9F00F
:101080004093A6010E948E1B9093A5018093A4011A
:1010900080E28C0F883008F061C0C77081E001C029
:1010A000880FCA95EAF7DF91CF911F910F91FF90BA
:1010B000EF90DF90CF90BF90AF900C9455101091AF
:1010C000A601141340C08091A4019091A5010E9433
:1010D0009A1B6C01B701C5010E947A15C816D90682
:1010E00090F5C0E2CD0F1D17B9F080E2810F883076
:1010F00040F4177081E001C0880F1A95EAF70E944A
:101100005C10C83048F481E09D2F977001C0880FB3
:101110009A95EAF70E945510802F0E944210C8301D
:10112000E8F4D77081E001C0880FDA95EAF7DF9123
:10113000CF911F910F91FF90EF90DF90CF90BF90D4
:10114000AF900C945C1080E28C0F883038F4C7703C
:1011500081E001C0880FCA95EAF7E9CFDF91CF910E
:101160001F910F91FF90EF90DF90CF90BF90AF90C5
:1011700008950F939C01CB01233F4CE5340759F1AF
:10118000A8F4283DFCE53F0701F1293D4CE5340773
:10119000D1F1273D3C4591F406E221EE41EE67EDA9
:1011A0007CE50E942E0880E00F910895253FFCE524
:1011B0003F07E9F0B0F0263F3C45F9F0FC018281A1
:1011C000882339F11092A601EFCF07E225EE45EE14
:1011D00068ED7CE5E6CF06E221EE40EE63EF7CE5CC
:1011E000E0CF07E225EE44EE64EF7CE5DACF06E2DD
:1011F00021EE42EE65EF7CE5D4CF07E225EE46EE28
:1012000066EF7CE5CECF08E221E045EE69ED7CE5B6
:10121000C8CF81E0C9CFCF93DF93EC01FB0182817E
:10122000882309F419C1C230FCE5DF07C0F1C631DB
:101230009CE5D90730F09E012A5F3C4529303105F5
:1012400070F50E9498199093570380935603C0310C
:10125000ECE5DE0709F4CFC008F05BC0C8308CE5D0
:10126000D80709F4B6C088F5C430ECE5DE0709F408
:10127000A8C0C0F4C2308CE5D80709F49CC08091A6
:1012800056038260C330DC4509F498C08091560350
:10129000909157030E94A6190E94041380E0DF91E9
:1012A000CF910895809156038061C630ECE5DE074A
:1012B00009F484C0809156038860C730DC4508F487
:1012C0007DC080915603806279C0CC308CE5D80710
:1012D00009F489C070F4809156038C60CA30ECE543
:1012E000DE0709F46BC008F478C0809156038E7F46
:1012F00065C0CE308CE5D80709F479C080915603DB
:101300008B7FCF30DC4508F459C0809156038F7E27
:1013100055C0CB3FECE5DE0709F457C030F5C331CB
:101320008CE5D80709F46FC078F4C131ECE5DE072D
:1013300009F465C0C231DC4509F0A8CF0E9404134E
:10134000809156038F773AC0C5318CE5D80709F4F0
:1013500062C008F476C0809157038160CA3FDC45C3
:1013600009F094CF8093570391CFCF3FFCE5DF077F
:1013700009F44DC088F4809157038D7FCD3F9CE5E3
:10138000D90781F3809157038E7FCE3FDC4550F320
:10139000809157038360E6CFC130FDE5DF0709F494
:1013A00059C008F444C080E0C230DD4509F06ECF7A
:1013B0000E94241A6BCF809156038160809356035C
:1013C00065CF809156038460F9CF80915703826086
:1013D000C9CF809156038064F1CF0E94041380919D
:1013E00056038068EBCF809156038D7FE7CF8091C5
:1013F0005603877FE3CF809156038F7DDFCF8091A7
:1014000056038F7BDBCF80915603837FD7CF8091AC
:1014100057038C7FA7CF8091560382FB992790F9C1
:1014200021E0922790FB82F990FB83F9C7CF80914E
:101430005703982F909591708E7F892B90FB81F99F
:1014400091CF0E94041390915603892F97FB87F93F
:101450008058B4CF81E0ACCF81E021CFCF93DF9330
:10146000EB0186319C4511F50E9486189A819923DB
:1014700099F08A7A91E009F490E09093A7018111A4
:1014800009C089E20E9461180E94D21880E0DF91B1
:10149000CF91089585E3F6CF8091A701811104C013
:1014A00089E20E946818F0CF85E3FBCF81E0EFCF9F
:1014B000089508958BEE0E94150C8A3F31F50E9425
:1014C000000C90915003892B8093AD010E94000C79
:1014D0008093AE010E94000C9091AE012091AD016D
:1014E0003091AB01322737704091B001492B342B3A
:1014F000382B99F41092AE011092AF011092B00106
:101500001092B1011092AD0108958091D40283FF31
:10151000FBCF8FE892E00C9445032093AB01322F70
:10152000307424FF57C0311103C0903809F097FF81
:1015300091E89093AE0125FF53C027FD03C080388A
:1015400009F087FF81E8922F97709093AD01819504
:101550008093AF018091AA0122FF48C0811109C088
:101560000E948E1B9093A9018093A80181E0809333
:10157000AA019091AE018091AF01292F282B99F0FB
:1015800022E02093AA0187FD8F5F85958195809346
:10159000B001892F97FD8F5F85958093B1011092DF
:1015A000AE011092AF018091AD018B7F8093AD01B0
:1015B0008091AE019091AF01892B9091B001892B60
:1015C00021F08CEA91E00E94590A8CEA91E00E9495
:1015D000D00D90CF311102C097FFABCF9FE7A9CFBD
:1015E00027FD02C087FFAFCF8FE7ADCF813001F578
:1015F0008091A8019091A9010E949A1B8C32914080
:10160000B8F48091AD0184608093AD018CEA91E0E3
:101610000E94D00D8FEF91EE24E081509040204049
:10162000E1F700C000008091AD018B7F8093AD0198
:101630001092AA01B8CFCF9384EF0E94150CC82F47
:101640008091D40283FF1BC08FE692E00E94450385
:101650008091D4011F928F931F92CF931F9284EF9A
:101660008F9389E492E09F938F930E94DE038DB75E
:101670009EB708960FB6F8949EBF0FBE8DBFCF9150
:101680000895CF930E94ED0B2FEF87EA91E621504A
:1016900080409040E1F700C000008FEF0E94150CE1
:1016A000C82F8091D40283FF1BC080E493E00E9486
:1016B00045038091D4011F928F931F92CF931F9265
:1016C0008FEF8F938AE193E09F938F930E94DE03C5
:1016D0008DB79EB708960FB6F8949EBF0FBE8DBF0C
:1016E0000E94000CC82F8091D40283FF16C081E0B5
:1016F00093E00E9445038091D4011F928F931F9223
:10170000CF9388EE92E09F938F930E94DE030F9019
:101710000F900F900F900F900F900E94000CC82F09
:101720008091D40283FF16C08DEC92E00E944503A5
:101730008091D4011F928F931F92CF9384EB92E0FC
:101740009F938F930E94DE030F900F900F900F9046
:101750000F900F900E941B0BCF910C94580A9FB7CB
:10176000F8942091B2018091B301821769F030E0C2
:10177000F901EC54FE4F80812F5F3F4F2F713327CB
:101780002093B2019FBF089580E0FCCFCF93DF93F9
:10179000EC010E94480D882311F0209721F4CE011E
:1017A000DF91CF91089585E08A95F1F700002197A8
:1017B000F0CFCF93DF93C2E3D0E00E94480D8111B8
:1017C00002C0209721F4CE01DF91CF91089585E0EA
:1017D0008A95F1F700002197F0CF0E94450D0E94F5
:1017E000560D5598529886E78093CA001092C8000B
:1017F0001092CD001092CC0080E98093C90008952A
:101800008AE1815011F40C94AF0B3FB7F89420910A
:10181000B3019091B2013FBF2913F5CFEFE9FFE08B
:101820003197F1F700C00000ECCFEF92FF920F93D9
:101830001F93CF93DF93E82E1092D4011092CA0029
:101840008091C900877E8093C9000E94420D0E944A
:10185000560D8FE891E00197F1F700C000000E945B
:10186000530D0E94450D80E197E20E94C60B892B23
:10187000E9F48AE08093D4010E94450D0E94560D40
:101880005598529886E78093CA001092C80010922B
:10189000CD001092CC0080E98093C90080E0DF91F8
:1018A000CF911F910F91FF90EF900895D0E0C0E08D
:1018B00011E0F12C01E090E59A95F1F7C7010C2EAB
:1018C00002C0959587950A94E2F780FF09C010271A
:1018D0000E94560D0E94D90B892B29F482E0CACFB1
:1018E0000E94530DF7CF82E390E00E94C60B892B34
:1018F00011F483E0BFCF2196C830D105E1F680E531
:101900008A95F1F7112341F00E94560D0E94D90BE0
:10191000892B29F484E0AECF0E94530DF7CF82E3E8
:1019200090E00E94C60B892B11F485E0A3CF90E5CF
:101930009A95F1F70E94560DC2E3D0E00E94590D2E
:10194000882351F0209711F486E094CF25E02A9562
:10195000F1F700002197F2CFCD2BB1F382E390E0B5
:101960000E94C60B892B11F487E084CF0E94D90B0B
:10197000892B79F488E07ECF85E08A95F1F7000025
:1019800021970E94590D811107C02097A9F789E07E
:1019900071CFC2E3D0E0F5CFCD2BC9F30E94450D46
:1019A0000E94560D5598529886E78093CA0010926F
:1019B000C8001092CD001092CC0080E98093C9003D
:1019C000DF91CF911F910F91FF90EF900C94000C3D
:1019D0001F920F920FB60F9211240BB60F922F93F6
:1019E0003F934F935F936F937F938F939F93AF93A7
:1019F000BF93CF93EF93FF938091C8008C71409178
:101A0000CE0081112EC0CFB7F8948091B30190E041
:101A10009C012F5F3F4F2F7133275091B201521716
:101A2000D9F08C549E4FFC0140832093B301CFBF6B
:101A3000FF91EF91CF91BF91AF919F918F917F9146
:101A40006F915F914F913F912F910F900BBE0F902F
:101A50000FBE0F901F9018958EE593E00E944503EE
:101A6000E6CF1F924F931F928F938AE693E09F9346
:101A70008F930E94DE030F900F900F900F900F90A6
:101A80000F90D6CF5D98559A089555985D9A089510
:101A900055985D9A85E08A95F1F7000089B185FB3C
:101AA000882780F908955A98529A089552985A9A18
:101AB000089552985A9A85E08A95F1F7000089B105
:101AC00082FB882780F908959093DA018093D901E9
:101AD0000895E091D901F091DA01309721F0019059
:101AE000F081E02D099480E00895EF92FF920F932A
:101AF0001F93CF93DF93EC01E091D901F091DA01CC
:101B0000309709F446C080911401882341F08091F8
:101B1000560387FF04C08881898385E0888302801B
:101B2000F381E02DCE0109958091D40282FF31C06E
:101B300080FF04C084E993E00E94450310E000E0C8
:101B40008EE8E82E83E0F82E8091D40280FF0EC04C
:101B5000FE01E00FF11F80811F928F93FF92EF92A1
:101B60000E94DE030F900F900F900F900F5F1F4F9A
:101B70000830110549F78091D40280FF0AC08CE833
:101B800093E0DF91CF911F910F91FF90EF900C9414
:101B90004503DF91CF911F910F91FF90EF90089532
:101BA000E091D901F091DA01309739F022E0DC01BF
:101BB0002C930480F581E02D099408952091D7019C
:101BC0003091D8012817390771F09093D80180938C
:101BD000D701E091D901F091DA01309721F0068028
:101BE000F781E02D099408952091D5013091D60117
:101BF0002817390771F09093D6018093D501E091B1
:101C0000D901F091DA01309721F00084F185E02DBF
:101C10000994089585B7806885BF85B7806885BFBA
:101C20000895089508950C94110E08950C94150EBE
:101C30000E940A0E0E94120E0C94130E81E0089569
:101C40000C941E0E0E94851B0E9421070E94410BCE
:101C50000E94FF1B0C94160ECF93C82F8091D402C4
:101C600082FF1EC080FF1CC08DEA93E00E944503E6
:101C70008091D40280FF14C01F92CF9388EA93E032
:101C80009F938F930E94DE038091D4020F900F9058
:101C90000F900F9080FF04C086EA93E00E944503F6
:101CA0008C2FCF910C94AA044F925F926F927F92E7
:101CB0009F92AF92BF92CF92DF92EF92FF920F93DB
:101CC0001F93CF93DF93CDB7DEB72A970FB6F89463
:101CD000DEBF0FBECDBF0E946D070E94200E88237D
:101CE00009F492C04CEDA42E41E0B42E10E000E0C7
:101CF000902E802F0E94C7062B013C01F501C19058
:101D0000D190E190F1905F01C414D504E604F7048A
:101D100009F474C08091D40281FD0E94D206B701FB
:101D2000A601442555256625772520E0C12CD12C18
:101D30007601C394DB01CA018C219D21AE21BF2114
:101D4000892B8A2B8B2B09F451C02E839F824C2028
:101D50005D206E207F2081E045284628472809F431
:101D600080E088870E948E1B8160782F9A87898700
:101D70004E815F8168858A850E942B0F000F111F9D
:101D8000000F111FF801E452FE4F80819181A28162
:101D9000B3818C259D25AE25BF2580839183A283A9
:101DA000B3830E942C1E0E945A0A0E94690D9091D2
:101DB000DB018917D1F10E94690D8093DB012A961E
:101DC0000FB6F894DEBF0FBECDBFDF91CF911F914C
:101DD0000F91FF90EF90DF90CF90BF90AF909F90CA
:101DE0007F906F905F904F900C942C0E2F5FCC0CD7
:101DF000DD1CEE1CFF1C233109F09CCF0F5F1F4F31
:101E00000930110509F074CF8FEF89838A831B8213
:101E10000E948E1B8160782F9D838C8349815A811B
:101E20006B818D810E942B0FBCCF2A960FB6F89440
:101E3000DEBF0FBECDBFDF91CF911F910F91FF90FD
:101E4000EF90DF90CF90BF90AF909F907F906F907A
:101E50005F904F900895CF93DF93CDB7DEB72B9768
:101E60000FB6F894DEBF0FBECDBF4F83588769878A
:101E70007A878B871E821D8285E0FE013796DE0100
:101E8000119601900D928A95E1F749815A816B81F3
:101E90007C818D819E812B960FB6F894DEBF0FBE9C
:101EA000CDBFDF91CF910C947D15FC018081918194
:101EB0000C943318CF93C82F882309F48BC0823831
:101EC000C1F40E94690D81FD85C089E30E946118FB
:101ED0000E94D2182FEF81EE94E021508040904074
:101EE000E1F700C0000089E30E946818CF910C94CC
:101EF000D2188338A1F40E94690D80FD6BC083E580
:101F00000E9461180E94D2182FEF81EE94E02150B8
:101F100080409040E1F700C0000083E5E5CF8438C1
:101F2000A1F40E94690D82FD55C087E40E946118EA
:101F30000E94D2182FEF81EE94E021508040904013
:101F4000E1F700C0000087E4CFCF8CEF8C0F813A1F
:101F500090F46C2F80910001909101010E943D1A34
:101F6000882329F08C2F0E9468180E94D2188C2F89
:101F70000E946118BBCF80E28C0F883048F4C77094
:101F800081E001C0880FCA95EAF70E948918AECF98
:101F9000EBE5EC0FE33040F4F0E0E057FE4F8081DA
:101FA00090E0CF910C94DE0DE8E5EC0FE73150F4B2
:101FB000F0E0EE0FFF1FEE59FE4F80819181CF912F
:101FC0000C94F40DC03F30F08C2F0E94A41CCF91D4
:101FD0000C948F1DCF910895882309F452C0823844
:101FE00071F40E94690D81FF4CC089E30E94611861
:101FF0000E94D21889E30E9468180C94D218833882
:1020000059F40E94690D80FF3CC083E50E9461186D
:102010000E94D21883E5EFCF843859F40E94690DED
:1020200082FF2FC087E40E9461180E94D21887E4C3
:10203000E2CF9CEF980F913AF0F290E2980F98302F
:1020400050F4877091E001C0990F8A95EAF7892FC3
:102050000E948F18D2CF9BE5980F933020F490E028
:1020600080E00C94DE0D98E5980F973120F490E015
:1020700080E00C94F40D803F20F00E940C1D0C9425
:102080008F1D0895CF93C82F0E945A0FC93349F46A
:102090002FEF87EE93E0215080409040E1F700C0A1
:1020A00000008C2FCF910C94EC0F882321F00E941C
:1020B00089180C94D2180895882321F00E948F1853
:1020C0000C94D2180895BF92CF92DF92EF92FF92B4
:1020D0000F931F93CF93DF936C01D62FC72FFC0173
:1020E000058102950F70128111110E94A6180E949D
:1020F0007F18E82E882391F01123D1F08C2F807F58
:10210000803421F080E28D0F883090F082E00E94D0
:102110001D190E947F1891E0E82EE926BC2EB2948A
:102120009FE0B922EB2DF0E0E15BF84D0C94EE2638
:10213000E12CF4CF0C2F0F70C07F11F00295007FBF
:102140001123A9F0002359F080E28D0F883010F0A0
:10215000D11109C0802F0E9489180E94D2188D2F9A
:102160000E945A0F14C0802F0E949918F6CF8D2F0D
:102170000E94EC0F002359F080E28D0F883010F0A0
:10218000D1112CC0802F0E948F180E94D2182B2DA5
:102190002850330B2430310520F40E94690D0E9431
:1021A000AA04EE2009F4D1C10E947B1880FDCDC1A4
:1021B000F60112820E9475180E940117C6010E9442
:1021C000C6120E947518DF91CF911F910F91FF9059
:1021D000EF90DF90CF90BF900C942217802F0E9439
:1021E0009F18D3CFFC2FFF70FF2EC07FC03219F095
:1021F000F29480EFF822DD2369F0D13049F1112308
:1022000091F1002351F1F601858180FFA8CF8F70F5
:10221000858323C0112381F0011106C00E94B918E3
:102220008F290E945510B3CF0130C1F70E94B91811
:102230008F290E94BF18ABCF011106C00E94C81899
:102240008F2D0E945C10A3CF013009F4A0CFF6CFF0
:10225000112329F0063008F09ACF8F2DE2CF0530F8
:1022600008F095CFEDCF002359F3D93349F4FFEFB0
:1022700027EE33E0F15020403040E1F700C000008D
:102280008D2F0E94EC0F83CF8C2F869586958370BF
:1022900069F0813009F07BCF8D2F9C2F9370111145
:1022A00002C090E080E00E94F40D71CF8D2F9C2F32
:1022B0009370111102C090E080E00E94DE0D67CFA4
:1022C0008D2F112309F10E94A41CD53F71F0D63F38
:1022D00091F0D43FB1F4809150039091510381600B
:1022E000909351038093500352CF8091500390916B
:1022F00051038260F5CF8091500390915103846027
:10230000EFCF0E948F1D43CF0E940C1DD53F51F08F
:10231000D63F71F0D43FA9F78091500390915103BB
:102320008E7FDECF80915003909151038D7FD8CF67
:1023300080915003909151038B7FD2CF8C2F83706B
:1023400009F041C0111123CF4D2F4295469547709A
:10235000440F440F0D2F0F7010E030E020E0042EEA
:1023600004C0000F111F221F331F0A94D2F760E030
:1023700070E0CB01D4FF0FC06FE070E080E090E030
:1023800004C0660F771F881F991F4A95D2F7609582
:10239000709580959095C695C695C370602B712BEE
:1023A000822B932BC23049F058F4C13019F00E94AF
:1023B000B316EDCE0E94A116EACE0E94C516E7CE56
:1023C0000E949F16E4CE8695112311F08C2F817008
:1023D000882309F4DCCE4D2F429546954770440F73
:1023E000440F0D2F0F7010E030E020E0042E04C0E9
:1023F000000F111F221F331F0A94D2F760E070E014
:10240000CB01D4FF0FC06FE070E080E090E004C02B
:10241000660F771F881F991F4A95D2F760957095B0
:1024200080959095C695C695C370602B712B822BB5
:10243000932BC23049F058F4C13019F00E9478173C
:10244000A6CE0E946617A3CE0E948A17A0CE0E9435
:10245000DB169DCECF70112329F08C2F0E9401171F
:102460008D2FDFCE8D2F0E945C108C2F0E942217A3
:102470008ECED23F89F160F4D03FC9F0D13F29F12F
:10248000112309F442C001116ACE8C2F8F7121C033
:10249000D33F39F1D43FA1F7112369F1CF718C2FCC
:1024A0000E94011763E08C2F0E94081970CE11233F
:1024B00041F0053008F06BCE8C2F8F710E944517CC
:1024C00066CE063008F063CEF7CF8C2F8F711123C4
:1024D00069F20E9401175BCE8C2F8F711123C9F313
:1024E000C5CF112329F08C2F8F710E94EC164FCE8F
:1024F0000E94E7164CCE81E00E941D19023008F4BC
:1025000046CE82E00E941D1942CE002359F0D933F5
:1025100009F0B6CE8FEF97EEE3E081509040E040B7
:10252000E1F7ACCE8C2F8F71A1CF4C2F4F706D2F58
:10253000C6010E94B2040E94171629CE4C2F4F707C
:102540006D2FC6010E94B50422CEDF91CF911F915D
:102550000F91FF90EF90DF90CF90BF9008950F9371
:102560001F93CF93DF93EC01688179818A810E9468
:102570003D188C010E949C170E949E16B801CE0146
:10258000DF91CF911F910F910C946310CF93DF9344
:10259000EC018B819C81892B29F088819981892389
:1025A0008F3F59F4DF91CF910895CE010E94AF1271
:1025B000CE01DF91CF910C942C04CE010E945104E6
:1025C0008111F3CF0E947F18882361F38A818823C9
:1025D00049F382E0DF91CF910C941D190E94A61857
:1025E0000E94B6180E94D2180E94381F0E948F1DA8
:1025F00090E080E00E94DE0D90E080E00C94F40D0D
:102600000E946F180C94EE120E9496180C940013FE
:10261000E92FE295EF70E250EE3070F4F0E0E15A0D
:10262000F84D0C94EE26803F19F020F4883E20F4FB
:1026300081E00895843FE1F380E00895883EC0F38F
:10264000813FD1F7F5CF93FB882780F908950E9449
:1026500033180C940813CF93DF9300D000D00F925F
:10266000CDB7DEB70F900F900F900F900F90DF91C6
:10267000CF910895CF93DF9300D000D000D0CDB795
:10268000DEB726960FB6F894DEBF0FBECDBFDF9142
:10269000CF9108951F93CF93DF93C091010216E06D
:1026A000809102028C1304C0DF91CF911F91089595
:1026B000D0E01C9FF0011D9FF00D1124ED5FFD4F38
:1026C0004081518162817381848195810E943A1396
:1026D0002196C770E5CF409133025091340260914A
:1026E00035027091360280913702909138020C9435
:1026F0003A131F93CF93DF9380913802807FA9F420
:1027000080913502882389F080910102C0910202F4
:102710006091330270913402A0913602B091370279
:10272000D62FD72316E0C81304C0DF91CF911F9195
:10273000089590E0109711F0DF3F19F4019687702B
:10274000F2CF189F9001199F300D1124F901ED5F10
:10275000FD4F41814713F2CF40814613EFCF4281B5
:102760004111ECCF438154814A1B5B0B483C51051E
:1027700028F7809138028F70806180933802F901C8
:10278000E85FFD4F80818F708061808383E392E0FA
:102790000E94C612DF91CF911F910C944A13AF9201
:1027A000BF92CF92DF92EF92FF920F931F93CF933E
:1027B000DF93CDB7DEB761970FB6F894DEBF0FBEDB
:1027C000CDBF8C0185E0F801DE011D9601900D92D0
:1027D0008A95E1F7F80140815181E28083E3C82EB8
:1027E00082E0D82E60913602709137026115710532
:1027F00009F461C19091330220913402892F822320
:102800008F3F09F458C1A380B480F0903502F501E0
:10281000E61BF70BFF2009F4FCC080913802382F2B
:10282000307FE83CF10508F0B2C0311179C0FE2CD0
:10283000251323C0941321C0E1101FC08F70806145
:10284000809338020E946B13C6010E94C6128091C9
:102850003802F80185838F2D61960FB6F894DEBF9C
:102860000FBECDBFDF91CF911F910F91FF90EF90E1
:10287000DF90CF90BF90AF900895AB2829F0842FC0
:1028800085238F3F09F033C180E0F82FF170DF2EF0
:1028900080FF3CC0809101022091020236E0821349
:1028A00015C04D875E878D859E850E943318292F20
:1028B00022952F702230F0F0243018F59F70F1F03F
:1028C000F8019581907FD1F4D12C1EC090E0389F03
:1028D000F001399FF00D1124ED5FFD4F618165130B
:1028E00006C06081641303C062816E110FC001963F
:1028F0008770D5CF9F7011F0882331F3805E8830C8
:1029000018F3C8010E94C612FD2CA5CFEE2009F4D1
:10291000A2CF80913802816080933802F12C9BCF46
:10292000251306C0941304C0F801EE2009F48DC0ED
:102930004D875E878D859E850E942713882319F118
:10294000EE2009F180913802803270F0209133023C
:102950003091340238872F831986BB86AA868C87EC
:10296000CE0107960E94C61286E0F801A3E3B2E00A
:1029700001900D928A95E1F70E9479130E946B13E2
:10298000FF24F39468CFC8010E94C612F9CF311119
:1029900013C07A2DB98AA88A6E2D89890E942B13BB
:1029A00083E392E00E94C61286E0F60111928A95B6
:1029B000E9F70E946B13B2CF25130FC094130DC01B
:1029C000E1100BC0F8018583C8010E94C61286E0A1
:1029D000F60111928A95E9F73ECF4D875E878D8586
:1029E0009E850E942713882371F2EE2061F2809168
:1029F0003802803208F4B8CF20913302309134028B
:102A00003A8329831B82BD82AC828E83CE010196DC
:102A1000A9CFE83CF10508F041C0FE2CEE2009F4F6
:102A2000B2CF25132AC0941328C08091380280FDAC
:102A30001BC0982F907FC1F0F8018583903F31F043
:102A4000982F907F905F8F70892B8583C8010E949B
:102A5000C61286E0F801A3E3B2E001900D928A95D8
:102A6000E1F70E946B13F7CE86E0F801A3E3B2E032
:102A700001900D928A95E1F7EECE4D875E878D85A8
:102A80009E850E94271381116FCF8091380281604B
:102A900080933802C8010E94C612DDCE7A2DB98A11
:102AA000A88A6E2D89890E942B1386E0F601119267
:102AB0008A95E9F7D6CFEE2009F465CF4D875E877A
:102AC0008D859E850E942713F82E882309F45BCFFD
:102AD00086E0F801A3E3B2E001900D928A95E1F758
:102AE00083E392E00E94550F0E947913BACF81E0F0
:102AF0008E25CBCE88EC90E008951F93CF93DF9383
:102B0000CDB7DEB72C970FB6F894DEBF0FBECDBFA2
:102B10004F83588769877A878B879C87CE01079672
:102B20000E94CF13882369F08A859B85892B39F011
:102B30004F815885842F85238F3F09F071C016E09F
:102B40005FC086E0FE013796DE01119601900D927E
:102B50008A95E1F78A859B85892B89F38F819885F2
:102B600089238F3F61F32091020230E0C901019671
:102B700087709927409101024817190671F40E9445
:102B80000413109202021092010286E0E3E3F2E0E5
:102B9000DF011D928A95E9F7D2CF96E0929FD0018E
:102BA000939FB00D1124AD5FBD4FFE013196019092
:102BB0000D929A95E1F7809302020E944A13BFCFCB
:102BC000819FC00111248D5F9D4F0E94CF138823E8
:102BD000E9F0E09101021E9FF0011124ED5FFD4F2D
:102BE0004081518162817381848195810E943A1371
:102BF0008091010290E001968770992780930102ED
:102C000080910102909102028913DACF2C960FB6BF
:102C1000F894DEBF0FBECDBFDF91CF911F91089515
:102C200069857A858B859C850E943A1388CFEF92BF
:102C3000FF920F931F93CF93DF938C01892B81F029
:102C4000F12CEE24E394E8012196F8018491843775
:102C500070F4843008F05FC08130B1F08230A1F1AF
:102C6000DF91CF911F910F91FF90EF9008958537DD
:102C700009F44CC008F43DC09CE7980F903780F7EA
:102C80008F770E94EC0F49C00E5F1F4FFE018491A9
:102C900090E2980F983060F48770FE2D01C0FF0F0E
:102CA0008A95EAF78F2F0E94A9180E94D21802C0B5
:102CB0000E945A0F8F2D815030F2EFE9FFE03197DB
:102CC000F1F700C00000F7CF0E5F1F4FFE018491A7
:102CD00090E2980F983050F48770FE2D01C0FF0FDE
:102CE0008A95EAF78F2F0E94AF18DFCF0E94EC0F72
:102CF000E1CF0E5F1F4FFE01C491C150D8F28FE9A2
:102D00009FE00197F1F700C00000F7CF0E5F1F4F63
:102D1000FE01F490CFCF0E945A0F8E01CBCF0895C1
:102D20000C948F160E9490166093AB027093AC02C5
:102D30008093AD029093AE020C94EE1208950C9421
:102D400092160F931F930091AB021091AC02209149
:102D5000AD023091AE02602B712B822B932B1F9111
:102D60000F910C9492160F931F930091AB02109148
:102D7000AC022091AD023091AE0260237123822318
:102D800093231F910F910C9492160F931F93009110
:102D9000AB021091AC022091AD023091AE026027DF
:102DA0007127822793271F910F910C9492160C94F0
:102DB0008F160C94D7160E94D9166093A7027093B1
:102DC000A8028093A9029093AA020C94EE1260E0EC
:102DD00070E0CB010C94DB160F931F9341E050E0A1
:102DE00060E070E08A019B0104C0000F111F221FE8
:102DF000331F8A95D2F7C901B8011F910F910C9426
:102E0000DB160F931F9341E050E060E070E004C0D8
:102E1000440F551F661F771F8A95D2F78091A7022E
:102E20009091A802A091A902B091AA028A019B01E7
:102E3000082B192B2A2B3B2BC901B8011F910F918D
:102E40000C94DB160F931F9341E050E060E070E0BC
:102E500004C0440F551F661F771F8A95D2F7CB0118
:102E6000BA0160957095809590950091A702109198
:102E7000A8022091A9023091AA0260237123822323
:102E800093231F910F910C94DB160F931F9341E036
:102E900050E060E070E004C0440F551F661F771FCC
:102EA0008A95D2F78091A7029091A802A091A902D9
:102EB000B091AA028A019B01082719272A273B27DC
:102EC000C901B8011F910F910C94DB160F931F934A
:102ED0000091A7021091A8022091A9023091AA02A4
:102EE000602B712B822B932B1F910F910C94DB166F
:102EF0000F931F930091A7021091A8022091A9029D
:102F00003091AA0260237123822393231F910F9192
:102F10000C94DB160F931F930091A7021091A80247
:102F20002091A9023091AA02602771278227932756
:102F30001F910F910C94DB16089523E1929F800D51
:102F40001124982F977041E001C0440F9A95EAF739
:102F500086958695869595E0899FF0011124E75C1A
:102F6000FD4F90E080E070E05191DF0111979B01EF
:102F7000082E02C0369527950A94E2F72170219514
:102F80002527242325272C9301968530910561F769
:102F9000089523E1929F800D1124982F97708695B4
:102FA0008695869525E0829FF0011124E75CFD4F10
:102FB00050E040E080E0219130E0092E02C03695DB
:102FC00027950A94E2F721703327042E01C0220FBF
:102FD0000A94EAF7822B4F5F5F4F4530510559F74E
:102FE0000895BF92CF92DF92EF92FF920F931F93BB
:102FF000CF93DF938C01C090A702D090A802E090FD
:10300000A902F090AA028091AB029091AC02A0912B
:10301000AD02B091AE02C82AD92AEA2AFB2ACFE132
:10302000D0E0BC2ED701C6010C2E04C0B695A795E2
:10303000979587950A94D2F780FD0EC0219788F75F
:10304000B12C8B2DDF91CF911F910F91FF90EF90BD
:10305000DF90CF90BF900895B8018C2F0E94D204CA
:10306000019761F3EECFCF93DF93EC010E94F1174C
:10307000BE01DF91CF910C94D2041F93CF93DF93C5
:10308000EB0190910002992331F0CB01DF91CF91B8
:103090001F910C943318882379F0CB010E94F1170B
:1030A000182F682FCE010E949D17BE01812FDF913E
:1030B000CF911F910C94D204CB010E94C917182FF5
:1030C000F4CF682F80910001909101010C94DF1AD8
:1030D000682F80910001909101010C94EA1A80916F
:1030E0000001909101010C94F51A8091AF02859531
:1030F0008595859508958091AF0287700895909188
:10310000AF02977081E009F480E008958091D302C6
:1031100008959091D302892B8093D30208958095CE
:103120009091D30298239093D30208951092D302E2
:1031300008959091D202892B8093D20208958095B0
:103140009091D20298239093D20208951092D202C5
:1031500008959091D102892B8093D1020895809592
:103160009091D10298239093D10208951092D102A8
:1031700008958091B002089508950C94BC18909120
:10318000B002981721F08093B0020C94BD180895F6
:103190008091B002882329F01092B00280E00C9454
:1031A000BD180895E0910001F09101018091D302D2
:1031B0008083E0910001F091010180819091D20221
:1031C000892B8083E0910001F09101018081909131
:1031D000D102892B80839091B002992381F0E091F4
:1031E0000001F09101018081892B80838091000191
:1031F000909101010E94291A81110E94C8188091A2
:103200000001909101010C94750D08950C9405191D
:1032100098E0899F90011124622B6093AF020E9475
:1032200001178091AF028595859585950C940619B7
:103230001092AF0280E00C9406199091AF02809535
:1032400089238093AF02282F277071F4282F082E2E
:10325000000C330B9217130639F0859585958595EB
:103260000E9422170C94181908959093A30180933B
:10327000A2010895829590E09C01220F331F220F36
:10328000331F2C7C95958795959587958373282B6F
:1032900030E0C901880F991F8A7A359527952575E1
:1032A000822B0895CF93DF93D92F0E943A19C82F0C
:1032B0008D2F0E943A199C2FDF91CF910895CF92C4
:1032C000DF92EF92FF920F931F93CF93DF937C01D6
:1032D000CB010E945219EC01C7010E9452198C01C6
:1032E000BE0190E080E0CB017727662730E020E048
:1032F000602B712B822B932BDF91CF911F910F911C
:10330000FF90EF90DF90CF90089590E080E00E94D2
:10331000132721E08C3E9E4F09F020E0822F089574
:1033200082E090E00C940B2783E090E00C940B2754
:10333000CF9384E090E00E940B27C82F81E290E0B9
:103340000E940B27982F8C2FCF910895CF93C92FD0
:10335000682F84E090E00E9419276C2F81E290E0B2
:10336000CF910C941927AB01BC018FE090E00C9435
:103370002B27AB01BC0183E190E00C942B2760E08C
:1033800070E0CB010C94B91960E070E0CB010E94B1
:10339000B3190C94BF196CEE7EEF90E080E00E94B0
:1033A000372760E082E090E00E94192760E083E028
:1033B00090E00E9419271092AB021092AC0210927A
:1033C000AD021092AE0260E084E090E00E94192706
:1033D00060E081E290E00E94192760E085E090E0E3
:1033E0000E94192760E086E090E00E9419276FEFA5
:1033F00087E090E00E94192740E050E0BA0188E0A1
:1034000090E00E942B2760E08DE090E00E94192759
:1034100040E050E0BA0188E190E00E942B2760E094
:1034200087E190E00E94192740E050E0BA018CE16A
:1034300090E00E942B2760E080E290E00E94192734
:103440000C94C4190C94CB19682F8EE090E00C9466
:103450001927FC01329680911401882321F0809174
:1034600056039EE187FF96E080E0915008F40895AE
:1034700021912223D1F38F5FF8CF662301F12091B0
:1034800014012223F1F02091560327FF1AC0462F82
:103490004695469546954E3190F4677021E030E0B0
:1034A00002C0220F331F6A95E2F7840F911DFC01C1
:1034B000828190E02823392381E0232B69F480E086
:1034C0000895FC01329608962191261721F0E817FD
:1034D000F907D1F7F4CF81E008959C01FC01329601
:1034E0009FEF80E04191461751F09F3F19F4411141
:1034F00001C0982F8F5F8630A9F79F3F09F4089588
:10350000290F311D97FD3A95F90162830895FC0159
:10351000329608962191261303C0DF0111971C9261
:10352000E817F907B9F70895E62FE695E695E695C9
:10353000EE3170F4E80FF92FF11D677021E030E0F3
:1035400001C0220F6A95EAF78281822B8283089557
:103550008091D40280FF0CC01F926F938EED93E098
:103560009F938F930E94DE030F900F900F900F9008
:103570000895E62FE695E695E695EE3178F4E80FA6
:10358000F92FF11D677021E030E001C0220F6A952C
:10359000EAF7209582812823228308958091D4021E
:1035A00080FF0CC01F926F9380EC93E09F938F93EA
:1035B0000E94DE030F900F900F900F9008952091BE
:1035C0001401222329F02091560327FD0C94941A0C
:1035D0000C946D1A20911401222329F02091560396
:1035E00027FD0C94B91A0C94871AFC01329680912D
:1035F0001401882351F08091560387FF06C08EE1A5
:10360000DF011D928A95E9F7089586E0F9CF0895C4
:1036100008950C94081B0E94091B80915C03843060
:1036200049F11092D50288E190E020E40FB6F894B9
:10363000A895809360000FBE2093600080E00E94F8
:10364000AA040E94091B83B7817F846083BF83B76C
:10365000816083BF7894889583B78E7F83BF0FB6D0
:10366000F894A89580916000886180936000109222
:1036700060000FBE08950895CF930E94071B0E941B
:103680006D070E943B1BC0E08C2F0E94C706672B72
:10369000682B692B31F4CF5FC930B1F780E0CF914F
:1036A000089581E0FCCF08950C94531B0E940413ED
:1036B0000E94690D0E94AA040C94541B1F921FB60D
:1036C0001F9211248F939F93AF93BF938091D50244
:1036D000811113C08091520390915303A091540320
:1036E000B09155034196A11DB11D80935203909353
:1036F0005303A0935403B0935503BF91AF919F918F
:103700008F911F901FBE1F90189582E084BD93E09B
:1037100095BD9AEF97BD80936E0008952FB7F894EA
:103720008091520390915303A0915403B09155039B
:103730002FBF08959C014FB7F89480915203909148
:103740005303A0915403B09155034FBF821B930BB9
:10375000089578941F921FB61F9211248F939F9300
:10376000AF93BF938091520390915303A091540360
:10377000B09155030196A11DB11D80935203909302
:103780005303A0935403B0935503BF91AF919F91FE
:103790008F911F901FBE1F901895F89481E0809321
:1037A000E00080E28093D800E9ECF0E010828FE145
:1037B0009EE40197F1F700C000001DBA1092680066
:1037C0001CBC10BE1FBA10927A0010926E001092AC
:1037D0006F00109270001092710010821092BC0065
:1037E00011B814B817B81AB81DB810BA12B815B86D
:1037F00018B81BB81EB811BA0C9400FE08950E94A8
:103800008519811102C00E94221A0E94901980938A
:10381000D4020E94981990935703809356030E94F4
:103820009419682F70E090E080E00E949F166091EC
:10383000A7027091A8028091A9029091AA020C940B
:10384000D9168091DC0280FF12C06091070185E0EB
:10385000689FB001112475956795759567956038D7
:103860007105A8F561157105A1F1862F089581FFF5
:1038700009C06091070185E0689FB001112475952A
:103880006795EDCF6091070182FD0AC08091DB0250
:103890008823D1F09091060160910701891728F0E3
:1038A00085E0689FB0011124DACF869FB001112412
:1038B00085E0869F9001879F300D1124692F70E06D
:1038C000C9010E94DA26CBCF65E070E0CECF8FE74A
:1038D000089581E008958091DC0280FF0CC0609122
:1038E000030170E07595679575956795611571058C
:1038F00049F1862F089581FF06C06091030170E0B1
:1039000075956795F3CF6091030182FD0BC090918F
:10391000DA029923A1F060910201809103019617C8
:1039200038F0682F70E06038710500F38FE7089574
:10393000899FC001112470E00E94DA26F4CF61E073
:1039400070E0D7CF81E00895803F31F40E94211CC0
:1039500081958093E0020895813F19F40E94211C13
:10396000F8CF823F31F40E94211C81958093DF02C1
:103970000895833F19F40E94211CF8CF893F29F450
:103980000E946B1C8093E10208958A3F21F40E94FB
:103990006B1C8195F7CF8B3F31F40E946B1C819596
:1039A0008093E20208958C3F19F40E946B1CF8CFBB
:1039B000843F31F48091DE0281608093DE020895BD
:1039C000853F21F48091DE028260F7CF863F21F4AB
:1039D0008091DE028460F1CF873F21F48091DE0286
:1039E0008860EBCF883F21F48091DE028061E5CFD3
:1039F0008D3F31F48091DC0281608093DC02089578
:103A00008E3F21F48091DC028260F7CF8F3FB9F7BF
:103A10008091DC028460F1CF9091DF02803F59F405
:103A20008091E00287FF0DC01092E00291110BC05F
:103A30001092DB0208C0813F81F48091E0021816E9
:103A40009CF3992381F08091E1029091E202892B0D
:103A500009F064C01092DA020895823F49F497FF9A
:103A6000F0CF1092DF028091E0028111ECCFE0CF25
:103A7000833F19F41916ACF3E4CF2091E102893F9A
:103A800029F41216F4F61092E102DBCF8A3F19F402
:103A900027FFD7CFF8CF2091E2028B3F29F427FFF1
:103AA000D0CF1092E202CDCF8C3F19F41216CCF396
:103AB000C8CF843F31F48091DE028E7F8093DE0296
:103AC000C0CF853F21F48091DE028D7FF7CF863F06
:103AD00021F48091DE028B7FF1CF873F21F480912A
:103AE000DE02877FEBCF883F21F48091DE028F7E5C
:103AF000E5CF8D3F31F48091DC028E7F8093DC0234
:103B0000A0CF8E3F21F48091DC028D7FF7CF8F3FD5
:103B100009F097CF8091DC028B7FF0CF08958091E0
:103B2000D40283FF7EC083E294E00E94450380912B
:103B3000DE021F928F938EE194E09F938F930E94F9
:103B4000DE038CE194E00E9445038091DF02282F80
:103B5000082E000C330B3F938F9389E194E09F93E1
:103B60008F930E94DE0387E194E00E9445038091D9
:103B7000E002282F082E000C330B3F938F9384E133
:103B800094E09F938F930E94DE0382E194E00E9471
:103B900045038091E102282F082E000C330B3F9340
:103BA0008F938FE094E09F938F930E94DE038DE0CC
:103BB00094E00E9445038091E202282F082E000C19
:103BC000330B3F938F938AE094E09F938F930E94EF
:103BD000DE0387E094E00E9445038091DB021F92A0
:103BE0008F9384E094E09F938F930E94DE0382E0A2
:103BF00094E00E9445038091DC021F928F938FEF27
:103C000093E09F938F930E94DE038CEF93E00E94DA
:103C100045038DB79EB74C960FB6F8949EBF0FBE66
:103C20008DBF0E948E1B9C019091DF028091E0026B
:103C3000982B21F03093D9022093D8029091E10281
:103C40008091E202982B21F03093D7022093D60284
:103C50008DED92E00C94D00DEF92FF920F931F9395
:103C6000CF93DF9300D000D000D0CDB7DEB786E091
:103C7000EDEDF2E0DE01119601900D928A95E1F7EB
:103C8000E090DF02F090E0020091E1021091E20288
:103C90001092DF021092E0021092E1021092E20212
:103CA0008E2D8F2991F08091D8029091D9020E9497
:103CB0009A1BAC019091DB02992309F43FC08091DB
:103CC00008018417150608F447C0802F812B91F056
:103CD0008091D6029091D7020E949A1BAC019091DC
:103CE000DA02992309F477C080910401841715063C
:103CF00008F47FC08091DF029091E002892B9091BF
:103D0000E102892B9091E202892B11F00E948F1D14
:103D100086E0FE013196ADEDB2E001900D928A95FC
:103D2000E1F726960FB6F894DEBF0FBECDBFDF9148
:103D3000CF911F910F91FF90EF900895209109016D
:103D40008AE0289F900111242417350708F0BDCF81
:103D50009F5F9093DB0202C09F3FD1F7EE2059F0A6
:103D60000E94211C9FEF1E140CF491E0899F802D6E
:103D700011248093DF02FF2059F00E94211C9FEF45
:103D80001F140CF491E0899F802D11248093E00290
:103D90003091DF02332309F498CF2091E0022223EF
:103DA00009F493CF45EB3403C0011124992359F052
:103DB0009093DF0245EB240390011124332339F063
:103DC0003093E00282CF81E08093DF02F3CF81E085
:103DD0008093E0027ACF209105018AE0289F90012C
:103DE00011242417350708F085CF9F5F9093DA02DE
:103DF00002C09F3FD1F7002359F00E946B1C9FEF38
:103E000010160CF491E0899F802D11248093E1021B
:103E1000112359F00E946B1C9FEF11160CF491E0D6
:103E2000899F802D11248093E2023091E102332397
:103E300009F460CF2091E202222309F45BCF45EB25
:103E40003403C0011124992359F09093E10245EB0A
:103E5000240390011124332339F03093E2024ACF36
:103E600081E08093E102F3CF81E08093E20242CFD0
:103E700086E0EDEDF2E0DF011D928A95E9F7109200
:103E8000DB021092DA021092DC02089580910603A0
:103E900008959FB7F8941092E5029FBF90915C033C
:103EA000943009F048C02091E9002F703091EC0067
:103EB000932F917030FD90E8922B23E02093E9003E
:103EC0002091EB0020FF34C02091EE0027FF30C08E
:103ED0002091E302222321F02091E80025FF28C051
:103EE0001092E30226E03091E80035FF14C0809381
:103EF000F1008091E80085FD27C08091E80080FFF7
:103F0000FCCF8091E8008E778093E8009F709093BB
:103F1000E90080E0089530915C03343049F4309139
:103F2000EB0035FD05C0215041F481E08093E302B0
:103F30009F709093E9008FEF0895EFE9FFE03197CC
:103F4000F1F700C00000CFCF8FB7F89421E02093A5
:103F5000E5028FBFDBCFCF93DF9300D00F92CDB7B9
:103F6000DEB790915C03943019F589837B836A8373
:103F700082E08093E9008FEF9091E800815095FDF9
:103F800006C095ED9A95F1F700008111F5CF80916B
:103F9000E80085FF0DC050E040E063E070E0CE0136
:103FA00001960E9435228091E8008E778093E80088
:103FB0000F900F900F90DF91CF910895BC0184E096
:103FC0000C94AB1FBC0183E00C94AB1F9C0182E0FE
:103FD0008093E9009FEF8091E800915085FD06C035
:103FE00085ED8A95F1F700009111F5CF8091E800F9
:103FF00085FF0CC050E040E066E070E0C9010E941F
:1040000035228091E8008E778093E8000895CF9361
:10401000DF93EC01809114018823B1F18091560364
:1040200087FF32C060E282E08093E9008FEF9091D9
:10403000E800815095FD06C095ED9A95F1F70000D6
:104040008111F5CF8091E80085FF1BC0809114019C
:1040500070E050E040E0811104C050E040E068E0D2
:1040600070E0CE010E9435228091E8008E77809327
:10407000E80080E2FE01A6EEB2E001900D928A9582
:10408000E1F7DF91CF91089568E081E0CDCF8BE635
:1040900094E00E94450380915B03811109C00E9456
:1040A000C3230E9425248091E20084608093E20073
:1040B000089587E694E00E94450310925B030895FB
:1040C00083E694E00C9445038FE594E00C9445035B
:1040D0008BE594E00E9445030C94561B2091E4026A
:1040E0002F5F822F62E30E94CE26992319F020933E
:1040F000E40208951092E4028091E5028823F1F031
:1041000080915C038430C1F49091E9009F7020910C
:10411000EC00822F817020FD80E8892B93E0909342
:10412000E9009091EB0090FF04C09091EE0097FDA4
:1041300008C08F708093E9001092E50208951092F4
:10414000F1009091E80095FDFACF9091E80090FF82
:10415000F0CF9091E8009E779093E800EACF42E09C
:1041600061EC81E00E943F2342E261EC82E00E9428
:104170003F2342E261EC83E00C943F2380915E0395
:10418000833009F45FC030F48130C1F1823009F42A
:104190009BC008958A3009F487C08B3009F46DC044
:1041A000893009F04EC080915D03813209F049C029
:1041B0008091610390916203029708F042C0809160
:1041C000E800877F8093E8008091E80082FF35C097
:1041D0008091F2009091F300029729F48091F10010
:1041E0008B7F813021F48091F100809306038091D0
:1041F000E8008B778093E8000C94732380915D0333
:10420000813AF9F48091E800877F8093E8008091FB
:10421000610390916203892B61F460E286EE92E083
:1042200070E00E9484228091E8008B778093E80000
:10423000089560E090E080E0F3CF80915C0381110D
:10424000C3CF089580915D03813AD9F780916103CE
:1042500090916203892BA9F78091E800877F809372
:10426000E8008091E80080FFFCCF809114018093EA
:10427000F1008091E8008E77BDCF80915D0381329F
:1042800001F78091610390916203892BD1F68091AF
:10429000E800877F8093E8000E94732380915F038A
:1042A000809314010C94041380915D03813249F6CC
:1042B0008091E800877F8093E8000E9473238091BB
:1042C000600380930703089580915D03813A09F0AC
:1042D000B8CF8091E800877F8093E8008091E80064
:1042E00080FFFCCF80910703C2CF84B7877F84BF54
:1042F0000FB6F894A8958091600088618093600063
:10430000109260000FBE80E890E00FB6F8948093A2
:104310006100909361000FBE0E94180E0E94C3239B
:104320000E9425248091E20084608093E20089E469
:104330009FE10E94351978940E94B3260E94220EB4
:104340008AE091E00E94640D8AE494E00E944503B3
:1043500080915C03853019F00E94540EF9CF86E4F9
:1043600094E00E9445030E940B1B80915A0388230E
:1043700079F30E943C1B882359F30E941F22E8CF47
:104380000C94C221292F33272330310521F168F401
:104390002130310509F449C02230310509F44AC001
:1043A00090E080E030E020E029C02132310581F149
:1043B00022323105A9F76330710590F7FB01EE0F4A
:1043C000FF1FEA56FE4F208131816D567E4FFB0163
:1043D000808190E013C099278130910599F0009772
:1043E00041F08230910589F00397D1F6EFE6F4E0D1
:1043F00002C0E1EAF4E0849190E09F01FA01318388
:1044000020830895EBE8F4E0F6CFE5E7F4E0F3CF9E
:104410006330710528F6660F771FFB01E456FE4FE7
:104420002081318189E090E0E9CF82E190E020E0D5
:1044300035E0E4CF8BE590E025EA34E0DFCF84E19E
:1044400089BD86E189BD09B400FEFDCF8091D80009
:104450008F7D8093D8008091E00082608093E0009F
:104460008091E00081FDFCCF0895AF92BF92CF9282
:10447000DF92FF920F931F93CF93DF936C01EB01B9
:104480008A010E949223F82E811123C00115110583
:1044900039F0F80180819181C81BD90BC80ED91E53
:1044A000B12CA12C2097A9F08091E80085FD22C0B5
:1044B0008091E8008E778093E80001151105A1F046
:1044C000F80180819181A80EB91EB182A08285E099
:1044D000F82E8F2DDF91CF911F910F91FF90DF90DC
:1044E000CF90BF90AF9008950E9492238823D1F27D
:1044F000F82EEFCFF60181916F018093F1002197A3
:10450000FFEFAF1ABF0ACECFFC01809163039091F9
:10451000640386179707A0F06115710529F490913F
:10452000E8009E779093E80090E06115710551F4E2
:10453000911108C08091E80082FF33C080E00895A7
:10454000BC01F2CF80915C038823B9F18530B9F1C9
:104550008091E80083FD2FC08091E80082FDEACFC2
:104560008091E80080FFE1CF2091F2003091F300CC
:104570006115710519F02830310558F091E02830A7
:10458000310509F090E02091E8002E772093E800B3
:10459000CCCF81918093F100615071092F5F3F4F23
:1045A000E7CF80915C03882341F0853041F0809112
:1045B000E80083FFBFCF81E0089582E0089583E0A3
:1045C0000895FC0180916303909164038617970717
:1045D000A0F06115710529F48091E8008E77809331
:1045E000E80090E06115710551F4911108C08091C7
:1045F000E80082FF34C080E00895BC01F2CF8091D2
:104600005C038823C1F18530C1F18091E80083FD0E
:1046100030C08091E80082FDEACF8091E80080FF01
:10462000E1CF2091F2003091F3006115710519F08E
:104630002830310558F091E02830310509F090E03C
:104640008091E8008E778093E800CCCF84918093AE
:10465000F1003196615071092F5F3F4FE6CF809195
:104660005C03882341F0853041F08091E80083FFAE
:10467000BECF81E0089582E0089583E00895982FE9
:10468000973028F08F708093E90081E0089590932F
:10469000E900242F762F50E0981731F07091EC004C
:1046A0002091ED005091F00021FD02C09F5FE8CF06
:1046B0003091EB003E7F3093EB003091ED003D7F79
:1046C0003093ED003091EB0031603093EB0070934C
:1046D000EC002093ED005093F0002091EE0027FDB8
:1046E000E5CF80E0089580915D0387FF13C080913E
:1046F000E80082FF06C08091E8008B778093E80095
:1047000004C080915C038111F2CF089580915C0315
:104710008823D9F38091E80080FFF8CF8091E800EA
:104720008E77ECCF2091E4003091E50095E6A90169
:104730002091EC00822F817020FF06C08091E8005C
:1047400080FF06C080E008952091E80022FD1AC095
:1047500080915C03882389F0853089F08091EB009B
:1047600085FD0FC02091E4003091E500421753070A
:10477000F9F29150E1F684E0089582E0089583E033
:10478000089581E008950E9434240E943C24E0EEC4
:10479000F0E0808181608083E8EDF0E080818F77B8
:1047A000808319BCA7EDB0E08C918E7F8C938081C3
:1047B0008F7E808310925B0308950F931F93CF9396
:1047C000DF930E9434240E943C24C8EDD0E088810D
:1047D0008F77888388818068888388818F7D8883AC
:1047E000E7EDF0E080818068808319BC10925C0363
:1047F0001092580310925A031092590300EE10E0E1
:10480000F80180818B7F808388818160888342E08A
:1048100060E080E00E943F23E1EEF0E080818E7F47
:104820008083E2EEF0E08081816080838081886017
:104830008083F80180818E7F808388818061888376
:10484000DF91CF911F910F910895E8EDF0E0808105
:104850008F7E8083E7EDF0E080818160808381E05E
:1048600080935B030C94DD23E8EDF0E080818C7F86
:1048700080831092E20008951092DA001092E10015
:1048800008951F920F920FB60F9211240BB60F923C
:104890002F933F934F935F936F937F938F939F9348
:1048A000AF93BF93EF93FF938091E10082FF0BC022
:1048B0008091E20082FF07C08091E1008B7F8093AE
:1048C000E1000E946E208091DA0080FF19C0809183
:1048D000D80080FF15C08091DA008E7F8093DA00C7
:1048E0008091D90080FF98C084E189BD86E189BDAF
:1048F00009B400FEFDCF81E080935C030E94472055
:104900008091E10080FF19C08091E20080FF15C016
:104910008091E2008E7F8093E2008091E2008061CE
:104920008093E2008091D80080628093D80019BC07
:1049300085E080935C030E9464208091E10084FF05
:104940002BC08091E20084FF27C084E189BD86E10D
:1049500089BD89B5982F917080FFFBCF8091D800D9
:104960008F7D8093D8008091E1008F7E8093E1005D
:104970008091E2008F7E8093E2008091E20081606E
:104980008093E20080915803882309F44BC084E0AF
:1049900080935C030E9468208091E10083FF29C01E
:1049A0008091E20083FF25C08091E100877F8093A2
:1049B000E10082E080935C03109258038091E10053
:1049C0008E7F8093E1008091E2008E7F8093E200F1
:1049D0008091E20080618093E20042E060E080E04C
:1049E0000E943F238091F00088608093F0000E9435
:1049F0006020FF91EF91BF91AF919F918F917F9137
:104A00006F915F914F913F912F910F900BBE0F903F
:104A10000FBE0F901F90189519BC10925C030E9456
:104A200059206ECF8091E30087FD93E090935C0363
:104A3000B1CF1F920F920FB60F9211240BB60F92A7
:104A40002F933F934F935F936F937F938F939F9396
:104A5000AF93BF93CF93DF93EF93FF93D091E90090
:104A6000DF708091EC00C82FC17080FDC0E810920B
:104A7000E9008091F000877F8093F00078940E9495
:104A800061251092E9008091F00088608093F00029
:104A9000CD2BCF70C093E900FF91EF91DF91CF91C3
:104AA000BF91AF919F918F917F916F915F914F9146
:104AB0003F912F910F900BBE0F900FBE0F901F9044
:104AC00018951F93CF93DF93CDB7DEB7AA970FB694
:104AD000F894DEBF0FBECDBF8DE593E02091F100CD
:104AE000FC012193CF01F3E085369F07B9F70E94BF
:104AF000BE208091E80083FF1EC180915D039091EC
:104B00005E039A3008F017C1E92FF0E0E359F84D41
:104B10000C94EE26803899F0823809F00CC180910F
:104B200061038F70873008F006C18093E90080919F
:104B3000EB0085FB882780F91092E90006C0809180
:104B4000590390915A03911182609091E800977FE8
:104B50009093E8008093F1001092F1008091E800BA
:104B60008E77E5C0882309F4D3C0823009F0E3C012
:104B700080915F038111D6C0809161038F702FEF08
:104B8000280F263008F0D7C08093E9002091EB0071
:104B900020FFC8C0933031F48091EB008062809395
:104BA000EB00C0C09091EB0090619093EB0021E08E
:104BB00030E001C0220F8A95EAF72093EA001092B4
:104BC000EA008091EB008860EACF8111B4C01091B7
:104BD0005F031F778091E3008078812B8093E3004F
:104BE0008091E800877F8093E8000E947323809182
:104BF000E80080FFFCCF8091E30080688093E300B1
:104C000082E0111183E080935C0395C0805882306C
:104C100008F091C080915F03909160038C3D23E088
:104C20009207A1F583E08A838AE289834FB7F894DB
:104C3000DE01139620E03EE051E2E32FF0E05093D6
:104C40005700E49120FF03C0E295EF703F5FEF70E3
:104C50008E2F90E0EA30C0F0C7968D939D932F5F22
:104C6000243159F74FBF8091E800877F8093E80097
:104C70006AE270E0CE0101960E9484228091E800F1
:104C80008B778093E80057C0C096E7CF60916103AF
:104C900070916203AE014F5F5F4F0E94C021BC0163
:104CA000892B09F448C09091E800977F9093E80021
:104CB00089819A810E94E122E1CF8038E1F58091DB
:104CC000E800877F8093E800809158038093F1008B
:104CD00045CF811130C090915F03923060F5809193
:104CE000E800877F8093E800909358030E94732325
:104CF00080915803882311F084E005C08091E3007F
:104D000087FDFACF81E080935C030E94AF2013C03F
:104D100080915F03813079F481E0933009F080E085
:104D200080935A031092E9008091E800877F809376
:104D3000E8000E9473238091E80083FF0AC08091FD
:104D4000E800877F8093E8008091EB008062809389
:104D5000EB00AA960FB6F894DEBF0FBECDBFDF9171
:104D6000CF911F910895CF9380915C038823A1F088
:104D7000C091E900CF709091EC00892F817090FD77
:104D800080E8C82B1092E9008091E80083FD0E9422
:104D90006125CF70C093E900CF910895991B79E008
:104DA00004C0991F961708F0961B881F7A95C9F7BB
:104DB0008095089597FB072E16F4009407D077FD91
:104DC00009D00E94F72607FC05D03EF49095819506
:104DD0009F4F0895709561957F4F0895EE0FFF1FC7
:104DE0000024001C0BBE0790F691E02D0994AA1B2D
:104DF000BB1B51E107C0AA1FBB1FA617B70710F0C6
:104E0000A61BB70B881F991F5A95A9F780959095F7
:104E1000BC01CD010895F999FECF92BD81BDF89AEC
:104E2000992780B50895A8E1B0E042E050E00C94E5
:104E30003F27262FF999FECF92BD81BDF89A0197A1
:104E400000B4021639F01FBA20BD0FB6F894FA9AD2
:104E5000F99A0FBE08950396272F0E941A270E94E1
:104E60001927252F0E941A27242F0C941A27019600
:104E7000272F0E941A270C941927DC01CB01FC0173
:104E8000F999FECF06C0F2BDE1BDF89A319600B4A3
:104E90000D9241505040B8F70895F894FFCF9A1002
:104EA0009A10F210F21044116011C710C7109E1131
:104EB0002A12391239129512C710C7109E121313F5
:104EC00013131C131C131E131C131C131C1313137A
:104ED000131323131C131C1323138A25B2259B269B
:0E4EE000B2259B26E52506269B265D26692623
:104EEE00B1022808641E140A321E461F0720E61F50
:104EFE00E21FDE1F01E200E900EA00B500B600B7CE
:104F0E0000CD008301CC008A01920194012102237D
:104F1E000224022502260227022A02B300B4006FE1
:104F2E0000700081828367F563F261F160C6C1C7CC
:104F3E00C03097319094333593F766F6F46564F389
:104F4E006232E200E900EA00B500B600B700CD001B
:104F5E008301CC008A0192019401210223022402D2
:104F6E002502260227022A02B300B4006F00700049
:104F7E0081828340BC22F00534051205B704D004AB
:024F8E00E90434
:00000001FF
